:100000000C9434000C9451000C9451000C94510049
:100010000C9451000C9451000C9451000C9451001C
:100020000C9451000C9451000C9451000C9451000C
:100030000C9451000C9451000C9451000C945100FC
:100040000C9451000C9451000C9451000C945100EC
:100050000C9451000C9451000C9451000C945100DC
:100060000C9451000C94510011241FBECFEFD8E026
:10007000DEBFCDBF11E0A0E0B1E0EAEDF1E002C0EB
:1000800005900D92A631B107D9F721E0A6E1B1E0C4
:1000900001C01D92AC31B207E1F70E9465000C94DB
:1000A000EB000C9400000E94A3000895CF93DF930F
:1000B000EC018881882331F021960E94DE0089912D
:1000C0008111FBCFDF91CF9108950E9453002FEF54
:1000D00080E792E0215080409040E1F700C00000AE
:1000E00087E70E94DE0085E60E94DE008CE60E9423
:1000F000DE0083E60E94DE008FE60E94DE008DE6D1
:100100000E94DE0085E60E94DE002FEF83ED90E383
:10011000215080409040E1F700C0000080E091E075
:100120000E9456002FEF83ED90E3215080409040D5
:10013000E1F700C00000CBCF50985898519A5998D9
:100140000E94C70008958FEE8093640084B114B8B4
:1001500085B19FEF95B987B1807887B988B18F67EE
:1001600088B98AB11AB88BB19BB940E060E881E6E2
:1001700090E00E94C00013BE15BE0E949C0008952E
:100180002FB7F894FC01608340832FBF0895E4E605
:10019000F0E080818D7F80831092C50087E6809398
:1001A000C4001092C00088E98093C10087E091E00C
:1001B000909319018093180180E00895E0ECF0E03D
:1001C000908195FFFDCF8093C60008950E94DE00C8
:0A01D00080E090E00895F894FFCF5E
:1001DA00616E75726167000000000200000000E6AF
:0601EA000000000000000F
:00000001FF
